:1000000000308A006928000026308400831300082D
:10001000031917280630F800F701F70B0D28F80B25
:100020000C287B30F700F70B1328800B0A280800F8
:10003000831606178312061B2D28A3132308831685
:100040008700831287173230A6000420A3132308E9
:100050008316870083128713A00A831686168312DD
:10006000861A4228A3132308831687008312871752
:100070003230A6000420A3132308831687008312BE
:100080008713A003831686178312861B6628A31383
:10009000230883168700831287173230A6000420B6
:1000A000A31323088316870083128713A108031D57
:1000B0005C280130A1005D28A101A108031D622870
:1000C0000612632806168316061283128A110A1274
:1000D000F82803081F3983008030A000A101A20185
:1000E000FF30A30083161F149F141F159F11831345
:1000F0000611831206118316861183128611A3132B
:1001000023088316870083128713A31023088316FE
:100110008700831287102314230883168700831215
:1001200007189C281930A6000420A3102308831662
:100130008700023083128706231423088316870062
:100140008312071CAD281930A6000420A310230831
:1001500083168700023083128706831606148312E3
:10016000061CBD28831606118312061583168611F8
:10017000831286150130A200F92883160611831216
:100180000611A108031DEE28220BEE280430A5005D
:10019000FA30A6000420A50BC828A40120082402D8
:1001A0000318E72883168610831286140730F70099
:1001B000F70BD828DB2800008316861083128610E0
:1001C000C730F700F70BE228E528A40ACE2808304C
:1001D000A500FA30A6000420A50BE9288316861195
:1001E000831286118316061483120618F92818281C
:0601F000F2288B286300D9
:02400E00323F3F
:00000001FF
;PIC16F876
;CRC=AB32  CREATED="20-ago-22 18:43"
