:1000000000308A0040280000FF00030E8301A10099
:100010000A08A0008A010408A2007708A300780853
:10002000A4007908A5007A08A600831383128B1E0A
:100030001B280B1932288C308400801C21288C1836
:100040003528220884002308F7002408F800250832
:10005000F9002608FA0020088A00210E8300FF0E0E
:100060007F0E09008A110A1238288A110A123C28C8
:100070000B118A110A1221288C108A110A122128C8
:1000800003081F39830083161F149F141F159F1127
:1000900083130108C039023881000830F8000538A0
:1000A00083129200C3308316920083128B1683163C
:0C00B0008C14C03083128B045C286300A9
:02400E00323F3F
:00000001FF
;PIC16F876
;CRC=B8F1  CREATED="06-ago-22 23:57"
